:020000040000FA
:100000008316051083126430A0002110851C0B2874
:10001000051D1128062821180628A00B06282114E2
:10002000282821180628A00B062821141728392073
:1000300005141D2005101D20172839206E30A20040
:100040006E30A3003920A30B2228A20B2028080021
:10005000392005142E2005102E202828392096300E
:10006000A4009630A5003920A50B3328A40B312815
:100070000800851D3C28080005106430A0002110F0
:02008000062850
:040082000034003412
:02400E00703F01
:00000001FF
