:020000040000FA
:020000001628C0
:040002000034003492
:08000800A6000308A7000B1D70
:1000100012280B1183308107A414A30B1228241477
:100020001930A300270883002608090083168801D9
:100030000F308600D430810044309F008312C930D5
:100040009F00A4011930A3008B168B17A41843201E
:10005000241C26281F151F192B281E08A500A001E7
:10006000A101A20164302502031C3928A20AA500BF
:1000700032280A302502031C4028A10AA50039288D
:100080002508A0002628A410061E4C2806122108C8
:100090005A20880086160800861E542886122208D8
:1000A0005A20880006170800061320085A208800E6
:1000B0000616080082073F3406345B344F3466343A
:0A00C0006D347D3407347F346F3453
:02400E00713F00
:00000001FF
