:020000040000FA
:100000008316860183126430A0002210A1012E20E5
:10001000851C1328051D1628851D22280F286430ED
:10002000A00022100828A1012E2008282218082844
:10003000A00B08282214A10A0A3021020318A101EA
:100040002E20082822180828A00B08282214A10313
:100050000A302102031832202E20082821083520DA
:10006000860008000930A10008008207FE343834F9
:10007000DD347D343B347734F7343C34FF347F3423
:040080000034003414
:02400E00703F01
:00000001FF
