:020000040000FA
:020000001628C0
:040002000034003492
:08000800AE000308AF000B1D60
:1000100012280B1183308107AD14A40B12282D1464
:100020001930A4002F0883002E08090083168801C8
:100030000F3086000711D4308100CE309F0083122C
:10004000C1309F001930A400AD018B168B17AD187D
:1000500075202D183028061C0715861C0711272827
:100060002D101F151F1932281E08A70083161E0801
:100070008312A800A001A101A2010330A900E83069
:10008000AA0061202D194A28A30A2B08A7002C08D2
:10009000A8003D280030A9006430AA0061202D1975
:1000A0005728A20A2B08A7002C08A8004A280A30C3
:1000B0002802031C5E28A10AA80057282808A000CF
:1000C00027282D112A082802AC00031C2D15290809
:1000D0002702AB00031C73282D1D08000130AB0262
:1000E00003182D1108002D150800AD10061E7E28DE
:1000F000061221089420880086160800861E86288D
:10010000861222089420880006170800061F8E28F1
:1001100006132308942088008617080086132008F9
:10012000942088000616080082073F3406345B34AA
:0E0130004F3466346D347D3407347F346F34C1
:02400E00713F00
:00000001FF
