:020000040000FA
:020000001628C0
:040002000034003492
:08000800A7000308A8000B1D6E
:1000100012280B1183308107A414A30B1228241477
:100020001930A300280883002708090083168801D7
:100030000F308600D430810044309F008312C930D5
:100040009F00A4011930A3008B168B17A41846201B
:10005000241C26281F151F192B281E08A5001E0862
:10006000A600A001A101A20164304320031C3A288C
:10007000A20A34280A304320031C4028A10A3A2847
:100080002608A0002628260880020800A410061EC4
:100090004F28061221085D20880086160800861E5B
:1000A0005728861222085D208800061708000613CC
:1000B00020085D2088000616080082073F340634B9
:1000C0005B344F3466346D347D3407347F346F34A1
:02400E00713F00
:00000001FF
